:020000040800F2
:1080000000000220B1D7010819D8010819D80108C9
:1080100019D8010819D8010819D801080000000072
:108020000000000000000000000000009184010832
:1080300019D8010800000000A1860108F98601088E
:1080400019D8010819D8010819D8010819D8010848
:1080500019D8010819D8010819FA00086DFA0008A2
:10806000C1FA000815FB000869FB0008B1420208CC
:10807000F5420208394302087D430208C143020861
:10808000054402084944020829ED000819D80108EE
:1080900019D8010819D8010819D80108BDFB000832
:1080A00019D801086513010819D8010819D8010861
:1080B00079130108B1130108C51301082D40020806
:1080C0003D4002084D4002085D40020819D80108F1
:1080D00019D80108B1F70008D9F7000819D8010824
:1080E00009FD000819D8010819D8010819D8010894
:1080F0009D13010819D8010819D801088D440208F8
:1081000019D8010819D801088913010819D80108DC
:1081100019D80108EDF70008E9D6010819D80108B7
:10812000D144020815450208594502089D45020838
:10813000E145020819D8010819D8010819D8010821
:1081400019D8010819D8010819D80108E917010838
:108150002546020869460208AD460208C5F7000830
:108160006D4002087D40020819D8010819D801089D
:1081700019D8010819D8010819D8010819D8010817
:1081800019D8010819D80108EFBEADDE10B5054CAD
:10819000237833B9044B13B10448AFF300800123B3
:1081A000237010BD700D00200000000074F403085F
:1081B00008B5064B1BB106480649AFF300800648D8
:1081C000036813B1054B03B1984708BD00000000D8
:1081D00074F40308740D0020680D002000000000F6
:1081E000154B002B08BF134B9D46A3F5803A002189
:1081F0008B460F461348144A121A29F02DFB0F4BD9
:10820000002B00D098470E4B002B00D09847002041
:10821000002104000D000D48002802D00C482CF06D
:10822000F5FF28F0CFFE2000290015F0DFF928F037
:1082300097FC00BF000008000000022000000000C2
:1082400000000000700D0020FC5300200D520308B8
:108250005565030880B582B000AF0023FB7102E0D2
:10826000054800F0CDF9FB7983F00103DBB2002B68
:10827000F6D10837BD4680BDB40D002080B500AFF3
:10828000034800F0D9FA642000F090FFF8E700BF3F
:10829000F40D002080B582B000AF0C481FF018FD2F
:1082A00003467B607B68002BD4BF00230123DAB236
:1082B0007B68632BCCBF00230123DBB21340DBB20E
:1082C000002B02D0024B7A689A60E6E79C0D0020F2
:1082D000B40D002080B500AF2B482C4901F0E4F824
:1082E0002B4802214FF4C872002300F02FFF2948C9
:1082F00002214FF4C872002300F028FF2648022113
:108300004FF4C872002300F021FF244800F0FEF96A
:1083100023481FF025FF034683F00103DAB21F4B09
:108320001A701E4B1B78002B09D01C4800F0EEF988
:108330001C4800F069FA1C4800F066FA05E019488C
:1083400000F06EFA184800F06BFA144B93ED077AC0
:10835000DFED167A67EE277AFDEEE77A17EE903AB0
:108360001348194601F0CCFE0C4B93ED077ADFED74
:108370000F7A67EE277AFDEEE77A17EE903A0D480E
:10838000194601F0BDFEC3E7140E0020040E0020C4
:108390007D8200089582000855820008B40D0020F7
:1083A0008C0D0020EC0D0020FC0D0020000048C3C7
:1083B000C8110020CC11002080B582B000AF7860D9
:1083C00039607B68012B2FD13A684FF6FF739A42D0
:1083D0002AD11748174900F06DF815481649174A71
:1083E00020F04EFD164800F047F8034615481946A0
:1083F0001FF0ECFB13481449104A20F041FD1348CC
:1084000013491FF031FD114812490C4A20F038FD84
:10841000114812491FF024FE0F481149074A20F065
:108420002FFD104800F092F90837BD4680BD00BF0F
:108430008C0D002048130020D98400080000002083
:10844000F41200209C0D0020F17B0208A40D0020F6
:10845000381200208D7E0208AC0D00203C12002056
:1084600085800208B40D002080B500AF01204FF6D2
:10847000FF71FFF7A1FF80BD80B483B000AF7860CB
:108480007B68383318460C37BD465DF8047B70476F
:1084900080B582B000AF78607B681B68243B1B68A6
:1084A0007A6813441846FFF7E7FF03461846083773
:1084B000BD4680BD80B483B000AF786039607B6812
:1084C0003A681A607B6800221A717B6818460C377C
:1084D000BD465DF8047B704780B582B000AF786020
:1084E000786800F005F87B6818460837BD4680BDFF
:1084F00080B582B000AF78607B681B681B681B6822
:108500007A681268104698477B681B681B680C33B2
:108510001B687A6812681046984703461A68543AEE
:1085200012681A441268303212681968543909689E
:108530000B44184690477B681B681B6810331B6808
:108540007A6812681046984703461A681032126813
:10855000184690477B681B681B6814331B687A6851
:1085600012681046984703461A6810321268184677
:1085700090477B6800221A710837BD4680BD00BF56
:1085800080B586B000AF786007F1140107F11002E2
:1085900007F10C0319481FF01BFDD7ED057AF5EE26
:1085A000407AF1EE10FA1FD0D7ED047AF5EE407A5A
:1085B000F1EE10FA18D097ED057AD7ED037AC7EEF1
:1085C000277A17EE900A27F001F802460B4643EC93
:1085D000102B26F0D1FC53EC102B1046194627F037
:1085E000E3FA02467B681A617B681B6907EE903AE2
:1085F000B0EE670A1837BD4680BD00BFA40D00204D
:10860000B0B586B004AF78607B681B7883F0010357
:10861000DBB2002B71D03A481FF06EFD034607EE27
:10862000903AB8EEE77A7B68D3ED087A37EE677A4E
:108630007B68D3ED0C7A27EE277ADFED327A87EE6E
:10864000277A7B68D3ED0B7A67EE277A7B68C3EDD8
:10865000057A7868FFF794FFB0EE407A7B68D3ED37
:10866000097A37EE677A7B68D3ED0A7AF1EE677A9A
:1086700067EE277A7B68C3ED067A7B6893ED077A0D
:108680007B68D3ED057A37EE277A7B68D3ED0D7AD8
:10869000F7EE006A76EEE77A27EE277A7B68D3ED6D
:1086A000066A7B68D3ED0D7A66EEA77A77EE277AB5
:1086B0007B68C3ED077A7B689B69184626F086FFC6
:1086C00004460D467B68DB69184626F07FFF0246AC
:1086D0000B4679688968CDE9002302910A48224651
:1086E0002B4629F017F97B68D3ED0C7AFCEEE77A7C
:1086F00017EE903A184600F07BFD0837BD46B0BD36
:10870000AC0D002000007A448C97030880B582B03D
:1087100000AF78607B684FF00002DA617868FFF79D
:108720002FFFF0EE407A7B68C3ED097A7B685B6AC5
:10873000184626F04BFF02460B46034829F0EAF89C
:108740000837BD4680BD00BFB497030880B483B02E
:1087500000AF78607B6800221A707B684FF00002DF
:108760001A617B684FF000025A617B684FF000028B
:108770009A617B684FF00002DA617B680C4A1A62EA
:108780007B680C4A5A627B680B4A9A627B680B4A88
:10879000DA627B684FF07E521A637B68084A5A633C
:1087A0007B6818460C37BD465DF8047B704700BFF8
:1087B0000000D744000010C1E42E65429A990D4094
:1087C0000AD7233C80B582B000AF78600B46FB70BF
:1087D0007A68FB780549CB5C1046194602F0EEFB3F
:1087E0007B6818460837BD4680BD00BF0C000020DE
:1087F00080B582B000AF78607B68184602F0FAFB63
:108800000837BD4680BD00BF80B582B000AF78603C
:108810007B681846012102F089FC0837BD4680BDFF
:1088200080B582B000AF78607B681846002102F006
:108830007DFC0837BD4680BD80B582B000AF786052
:108840007B68184602F082FC0837BD4680BD00BF39
:1088500080B582B000AF786039607B68012B10D1A1
:108860003A684FF6FF739A420BD107480021FFF791
:10887000A9FF06480121FFF7A5FF05480221FFF7E0
:10888000A1FF0837BD4680BDEC0D0020F40D00208F
:10889000FC0D002080B500AF01204FF6FF71FFF7FF
:1088A000D7FF80BD80B483B000AF78600B46FB700B
:1088B000FB78032B1ED801A252F823F0CD880008C4
:1088C000D7880008E1880008EB8800087B685B68AF
:1088D00000221A700EE07B685B6801221A7009E0C2
:1088E0007B685B6802221A7004E07B685B68032285
:1088F0001A7000BF0C37BD465DF8047B704700BF9F
:1089000080B584B000AFF860B9601346FB71FB68B6
:10891000184600F04DFABB681A68FB681A60FB68DD
:108920001B680C3B1B68FA681344BA6852681A60EB
:108930000A480C2100F020FD0246FB685A60FB68E3
:108940005B6800229A72FB79F8681946FFF7AAFF64
:10895000FB6818461037BD4680BD00BF140E0020CE
:1089600080B582B000AF78600B46FB707B6808333F
:10897000184600F0FDF97B68184600F019FA0E4A17
:108980007B681A6008237A6813440C4A1A600C4802
:108990000C2100F0F1FC02467B685A607B685B6842
:1089A00000229A72FB7878681946FFF77BFF7B6894
:1089B00018460837BD4680BD2C9803086C980308FC
:1089C000140E002090B587B002AFF860B960FA715C
:1089D000BB71FB685B68FA791A72FB685B68BA79ED
:1089E0005A72FB685B68BA685A60FB685B681B7800
:1089F000002B15D0FB685B681B78012B10D0FB683F
:108A00005B681B78022B0BD0FB685B681B78032B21
:108A100006D011481149124A602300F09BFDFEE781
:108A2000FB685B681878FB685B685968FB685B6883
:108A30001A7AFB685B685B7A0124009405F080FA7F
:108A4000FB685B681B7818460121012205F018FEBF
:108A50001437BD4690BD00BF140E0020C097030818
:108A6000D497030880B582B000AF78607B685B68FC
:108A70001B78032B26D801A252F823F08D8A000818
:108A80009B8A0008B78A0008A98A0008332004F0EE
:108A9000F3FC342004F0F0FC14E01C2004F0ECFCA7
:108AA0001B2004F0E9FC0DE0082004F0E5FC09209F
:108AB00004F0E2FC06E0252004F0DEFC242004F0B3
:108AC000DBFC00BF0837BD4680BD00BF0EB480B5DB
:108AD00085B000AF78600023FB6007F12003BB6026
:108AE0007B685B681B781846F969BA6805F038FD41
:108AF0000346FB60FB6818461437BD46BDE880405E
:108B000003B0704780B586B000AFF860B9607A6096
:108B100000237B61FB685B681B781846B9687A683C
:108B200005F01EFD03467B617B6918461837BD467C
:108B300080BD00BF80B586B000AFF860B9607A60D4
:108B40003B60FB685B6819787A683B680846B968DF
:108B500005F08EFC03467B617B69002B06DC064832
:108B60000649074AA12300F0F5FCFEE77B69184699
:108B70001837BD4680BD00BF140E0020C097030803
:108B8000D497030880B586B000AFF860B9607A600A
:108B90003B60FB685B6819787A683B680846B9688F
:108BA00005F0A2FC03467B617B6918461837BD4679
:108BB00080BD00BF80B582B000AF78600B46FB700F
:108BC0007B685B681A78FB1C10461946012242F24A
:108BD000107305F04DFC0346002BCCBF002301238E
:108BE000DBB2002B06D005480549064AAD2300F04C
:108BF000B1FCFEE70837BD4680BD00BF140E002063
:108C0000C0970308D497030880B584B000AF78609C
:108C10007B685B681A7807F10F031046194601223A
:108C20004FF0FF3305F060FCFB7B18461037BD4664
:108C300080BD00BF80B582B000AF78607B685B68A4
:108C40001B78184606F0B8FC0837BD4680BD00BF4B
:108C500080B582B000AF78607B685B681B7818468F
:108C600006F0CCFC034618460837BD4680BD00BF61
:108C700080B582B000AF786039607B68012B08D185
:108C80003A684FF6FF739A4203D103480021FFF779
:108C900067FE0837BD4680BD040E002080B500AFDA
:108CA00001204FF6FF71FFF7E3FF80BD80B584B070
:108CB00000AFF860B960FA71BB71FB681B680C3BD0
:108CC0001B68FA6813441946FA79BB790846B968F3
:108CD000FFF778FE1037BD4680BD00BF80B582B07B
:108CE00000AF78600B46FB707B681B68103B1B680D
:108CF0007A6813441A46FB7810461946FFF75AFF64
:108D00000837BD4680BD00BF80B582B000AF786037
:108D10007B681B68143B1B687A6813441846FFF78E
:108D200073FF034618460837BD4680BD80B582B044
:108D300000AF78607B681B68183B1B687A68134437
:108D40001846FFF777FF0837BD4680BD80B582B073
:108D500000AF78607B681B681C3B1B687A68134413
:108D60001846FFF775FF034618460837BD4680BD15
:108D700080B483B000AF78607B68044A1A607B6877
:108D800018460C37BD465DF8047B7047C898030849
:108D900080B483B000AF78607B68044A1A607B6857
:108DA00018460C37BD465DF8047B704700990308F0
:108DB00080B582B000AF78607B681846FFF7E8FFA7
:108DC0007B68034A1A607B6818460837BD4680BD39
:108DD000E898030880B400AFBFF34F8F054A054BF6
:108DE000DB6803F4E061044B0B43D360BFF34F8FA8
:108DF000FEE700BF00ED00E00400FA0580B584B096
:108E000000AF78607B68FB60FB681B68002B06D0B6
:108E1000FB681B68FA6892681046984708E0FB6890
:108E20005B68002B03D0FB685B68984700E0FEE7B7
:108E3000FB6801221A7300200CF050FB1037BD466E
:108E400080BD00BF90B58BB004AFF860B9607A60A8
:108E5000FB70614B1B78002B12D15F4B01221A7003
:108E60000023FB7509E0FB7D5C4A1B0113440833BA
:108E700000221A71FB7D0133FB75FB7D132BF2D9A8
:108E8000574A07F1100392E8030018600433198071
:108E900002330A0C1A70FB6A002B12D00023FB75F8
:108EA0000CE0FB7DFA7DF96A0A44127807F118019B
:108EB0000B4403F8082CFB7D0133FB75FB7D052B70
:108EC000EFD90023FB753DE0FB7D444A1B011344B1
:108ED00008331B79012B0AD1FA7D424B002143F85C
:108EE0002210FB7D404841491A4600F0F5FAFA7D10
:108EF0003C4B53F82230002B21D1FB7D374A1B011C
:108F00001344BA681A60FB7D344A1B011344FA68A3
:108F10005A60FB7D314A1B01134408337A681A609A
:108F2000FB7D2E4A1B011344083300221A71FB6A91
:108F3000002B03D1FB7D3033DBB27B7505E0FB7D7D
:108F40000133FB75FB7D132BBED9FB7D142B0DD19B
:108F500025482749274A982300F0FCFA07F1100317
:108F600021482549254A00F0F5FAFEE7BB6A9AB286
:108F7000FB7D1901194B0B44FC78F97D88001949D8
:108F8000084407F110010094019000200290002095
:108F900003901B480CF0DAF90346012B14BF0023A1
:108FA0000123DBB2002B04D0FA7D0E4B53F82230A4
:108FB0000DE00D480E490F4AAC2300F0CBFA07F143
:108FC000100309480F490D4A00F0C4FAFEE718469D
:108FD0001C37BD4690BD00BFB00F0020680E0020BA
:108FE000449A0308180E0020140E002080990308EC
:108FF00098990308AC990308F8990308849A030820
:10900000FD8D0008249A030880B584B000AF786015
:109010004020012111F0D8FB314B314A126842F057
:1090200004021A600023FB7307E0FA7B2D4B00213A
:1090300043F82210FB7B0133FB73FB7B132BF4D92A
:109040007868294900F030FA2848002101F0E8FE4C
:10905000264801F0CFFF786800F0FAF92448FFF7BE
:10906000C7FB2448FFF7C4FB2348FFF7C1FB204898
:10907000FFF7D6FB1F48FFF7D3FB1F48FFF7D0FBD6
:109080001E4808F0E9FB1E4800F06EFC1D4800F089
:109090006BFC1D4802F0BCFF1C4802F0B9FF1C48E5
:1090A00002F0B6FF1B4802F0B3FF1B4802F0B0FF0E
:1090B00000F04CFF194800F059FF194800F056FF26
:1090C000184800F053FF184800F050FF174800F010
:1090D0004DFF174800F04AFF1037BD4680BD00BF66
:1090E00000080650180E0020040E0020A80F0020D3
:1090F000EC0D0020F40D0020FC0D0020702300205A
:10910000B40F002020100020E01100203C120020AD
:1091100098120020F412002048130020C8110020EB
:10912000CC110020D0110020D4110020D811002033
:10913000DC11002080B483B000AF78607B681846F3
:109140000C37BD465DF8047B704700BF80B586B024
:1091500002AFF8607A603B600B46FB72FB7A7A687C
:1091600000923A680192F86800210022FFF76AFE37
:10917000034618461037BD4680BD00BF80B586B097
:1091800002AFF860B9603B601346FB71FB793A6847
:109190000092BA6901920020F968BA68FFF752FE9E
:1091A000034618461037BD4680BD00BF80B584B069
:1091B00000AF78606FF00043FB607A68FB689A420A
:1091C00004D94FF0FF300CF08FFA0BE07B684FF4BE
:1091D000FA6202FB03F2054BA3FB02139B0918463C
:1091E0000CF082FA1037BD4680BD00BFD34D62102F
:1091F00080B586B000AF78604FF4FA737B617A680F
:109200007B6913445A1E7B69B2FBF3F37A6902FB54
:1092100003F37B600D4B3B617A683B699A4204D94A
:109220004FF0FF300CF060FA0CE07B684FF4FA620C
:1092300002FB03F2064BA3FB02139B0CFB60F868D6
:109240000CF052FA1837BD4680BD00BF9BC4200009
:1092500083DE1B4380B584B000AF786039600223A1
:10926000FB607B681B68FA6802FB03F27B681A608C
:109270004FF0FF32FB68B2FBF3F23B689A4205D82D
:1092800078684FF0FF310CF0A7F907E03B68FA6807
:1092900002FB03F3786819460CF09EF97B681A68A4
:1092A000FB68B2FBF3F27B681A601037BD4680BDE5
:1092B00080B582B000AF02237B607B68002B04D1B5
:1092C0000748084900F008F9FEE70CF081FD024666
:1092D0007B68B2FBF3F318460837BD4680BD00BF7C
:1092E000140E00204C9A030880B400AF034B9B6817
:1092F0001846BD465DF8047B704700BF0008065065
:1093000080B582B000AF104B1B78002B05D10E4BFF
:1093100001221A706A2005F07BFA6A2005F002FC2F
:109320000346FB80FA881346DB00134407EE903AAD
:10933000B8EEE77ADFED057AC7EE277AB0EE670A76
:109340000837BD4680BD00BFB10F00200000344586
:1093500080B582B000AF78600FF048F90837BD469D
:1093600080BD00BF80B582B000AF78600FF068F9B3
:109370000837BD4680BD00BF80B582B000AF7860C1
:10938000396038680EF00CFE034618460837BD46B3
:1093900080BD00BF80B582B000AF786039603868AA
:1093A0000EF0A0FE0837BD4680BD00BF80B582B07C
:1093B00000AF7860396038680DF0EAFC3B68184609
:1093C0000837BD4680BD00BF80B582B000AF786071
:1093D0000DF0C4FB034618460837BD4680BD00BFEC
:1093E00080B582B000AF7860396038680DF046FD16
:1093F0003B6818460837BD4680BD00BF80B485B0C5
:1094000000AF786039600C4BBB600023FB600AE062
:10941000FB683A681344FA68B9680A4412781A700B
:10942000FB680133FB60FB68052BF1DD1437BD469B
:109430005DF8047B704700BF107AFF1F80B582B0D3
:1094400000AF7860FFF7C6FC0837BD4680BD00BF9F
:1094500080B582B000AF78600548064900F03CF85E
:109460000548012101F062FE0837BD4680BD00BFFE
:10947000140E0020749A0308A80F002080B582B053
:1094800000AF78600548064900F026F8054800213D
:1094900001F04CFE0837BD4680BD00BF140E002011
:1094A0007C9A0308A80F002080B483B000AF7860D6
:1094B00039603B68002B03D0054B3A681A6002E024
:1094C000034B044A1A600C37BD465DF8047B7047B5
:1094D000100E0020180000200EB480B585B000AF3B
:1094E00078600023FB6007F12003BB600A4B1B6818
:1094F0001B680C331B68084A12681046F969BA6881
:1095000098470346FB60FB6818461437BD46BDE824
:10951000804003B0704700BF100E002080B586B0B9
:1095200000AFF860B9607A6000237B61084B1B686C
:109530001B680C331B68064A12681046B9687A68C3
:10954000984703467B617B6918461837BD4680BD46
:10955000100E00200EB480B585B000AF786007F122
:109560002003BB60F869B96805F0E2F80346FB60C8
:10957000FB6818461437BD46BDE8804003B070470D
:1095800080B584B000AFF860B9607A60B868796877
:1095900005F0CEF8034618461037BD4680BD00BF23
:1095A00080B582B000AF7860014808F091FAFBE71F
:1095B0007023002080B500AF0148FFF7F1FF80BDA8
:1095C000140E00200FB480B582B000AF07F1140371
:1095D0003B60074839693A68FFF7D2FF03467B6072
:1095E0007B6818460837BD46BDE8804004B0704728
:1095F000140E002080B582B000AF78603960084B4F
:109600001B681B680C331B68054A12681046796892
:109610003A689847034618460837BD4680BD00BFE4
:10962000100E002090B583B000AF78603960084B11
:109630001B681B681C68064B1B68184679683A68EB
:1096400041F28833A047034618460C37BD4690BD0B
:10965000100E002090B583B000AF78603960094BE0
:109660001B681B6804331C68064B1B681846796826
:109670003A684FF0FF33A047034618460C37BD4603
:1096800090BD00BF100E00200FB480B582B000AFB7
:1096900007F114033B60074839693A68FFF770FF28
:1096A00003467B607B6818460837BD46BDE88040AE
:1096B00004B07047140E002080B582B000AF78600F
:1096C0007B684FF47A7202FB03F3184600F004F84B
:1096D0000837BD4680BD00BF80B485B000AF78605C
:1096E0007A681346DB0013445B00FB6000E000BFB8
:1096F000FB68013BFB60002B0CBF00230123DBB2A6
:10970000002BF4D11437BD465DF8047B704700BFD1
:1097100080B582B000AF78607868FFF747FD083702
:10972000BD4680BD80B582B000AF78607868FFF735
:109730005FFD0837BD4680BD80B582B000AF786060
:1097400039607B68012B0FD13B68B3F5FA7F02D1FA
:109750000748FFF7EFFC3A684FF6FF739A4203D1D0
:109760000448692101F02AFC0837BD4680BD00BFCE
:10977000140E0020A80F002080B500AF01204FF488
:10978000FA71FFF7D9FF80BD80B500AF01204FF619
:10979000FF71FFF7D1FF80BD0EB480B482B000AF7F
:1097A0007860002318460837BD465DF8047B03B097
:1097B000704700BF80B485B000AFF860B9607A60D0
:1097C000002318461437BD465DF8047B704700BF80
:1097D00080B485B000AFF860B9607A603B607B68A8
:1097E00018461437BD465DF8047B704780B485B0D9
:1097F00000AFF860B9607A603B6000231846143708
:10980000BD465DF8047B704780B582B000AF03466B
:10981000FB71FB79002B02D0012B02D003E0012366
:1098200008E0022306E005480549064A3023FFF711
:1098300091FEFEE718460837BD4680BD140E002095
:10984000D49A0308E89A030890B583B000AF786013
:109850000B46FB707B68FA781A707B681A1DF978E2
:10986000404B53F82130DBB21046194601F016FD8B
:109870007B6803F11002F9783A4B023153F821303A
:10988000DBB21046194601F009FD7B6803F11C02AA
:10989000F978344B043153F82130DBB210461946C5
:1098A00001F08CFB7B6803F12402F9782D4B063123
:1098B00053F82130DBB21046194601F07FFB7B687C
:1098C00003F12C02F978274B083153F82130DBB231
:1098D0001046194601F072FB7B6803F13402F978F7
:1098E000204B0A3153F82130DBB21046194601F003
:1098F00065FB7B6803F13C02F9781A4B0C3153F895
:109900002130DBB21046194602F060F87B6803F1A3
:109910005002F978134B0E3153F82130DBB2104668
:10992000194601F04BFB7B6803F15802F9780D4BA7
:10993000103153F82130DBB21046194601F03EFBDE
:109940007B6803F16004FB781846FFF75DFF034670
:1099500020461946FFF704F87B6818460C37BD46C9
:1099600090BD00BF409B030880B582B000AF786017
:109970007B681B78002B3ED17B6808331846012199
:1099800001F04EFA7B6814331846012101F048FAC1
:109990007B681C331846002101F042FA7B682433AF
:1099A0001846002101F03CFA7B682C331846002150
:1099B00001F036FA7B6834331846002101F030FAA2
:1099C0007B6844331846012101F02AFA7B68503342
:1099D0001846002101F024FA7B685833184600210C
:1099E00001F01EFA7B68603318464FF461310022A3
:1099F0000023FEF7E7FF7B681B78012B3ED17B68D5
:109A000008331846012101F00BFA7B68143318461D
:109A1000012101F005FA7B681C331846002101F092
:109A2000FFF97B6824331846002101F0F9F97B68BF
:109A30002C331846002101F0F3F97B6834331846C3
:109A4000002101F0EDF97B6844331846012101F053
:109A5000E7F97B6850331846002101F0E1F97B6893
:109A600058331846002101F0DBF97B686033184653
:109A70004FF4613100220023FEF7A4FF7B681B78BE
:109A8000034804491A46FFF727FD0837BD4680BD45
:109A9000140E0020309B030880B582B000AF7860C0
:109AA0007B680833184601F0A5FA7B681433184622
:109AB00001F0A0FA7B681C33184601F09BFA7B6822
:109AC0002433184601F096FA7B682C33184601F0CF
:109AD00091FA7B683433184601F08CFA7B68443382
:109AE000184601F087FA7B685033184601F082FA75
:109AF0007B685833184601F07DFA0837BD4680BDB3
:109B000080B582B000AF78607B680833184601F0FA
:109B100087FA7B681433184601F082FA7B681C339D
:109B2000184601F07DFA7B682433184601F078FA74
:109B30007B682C33184601F073FA7B68343318467F
:109B400001F06EFA7B684433184601F069FA7B68CD
:109B50005033184601F064FA7B685833184601F018
:109B60005FFA0837BD4680BD80B582B000AF78602F
:109B70000B467B807B681B78002B03D17B881846C3
:109B800004F06EF87B681B78012B03D17B881846A4
:109B900003F0EAFF0837BD4680BD00BF80B582B044
:109BA00000AF78607B681B78002B03D104F0E6F8E7
:109BB000034607E07B681B78012B03D104F054F9BE
:109BC0000346FFE718460837BD4680BD80B582B022
:109BD00000AF78600B467B807B681B78002B03D13D
:109BE0007B88184604F03CF87B681B78012B03D176
:109BF0007B88184603F0B8FF0837BD4680BD00BF1C
:109C000080B582B000AF786039607B68012B0CD1E1
:109C10003A684FF6FF739A4207D105480021FFF7D3
:109C200013FE04480121FFF70FFE0837BD4680BD33
:109C3000B40F00202010002080B500AF01204FF6A7
:109C4000FF71FFF7DDFF80BD90B58DB002AFF8600A
:109C5000B9607A603B60FB689B783B62FB68DB78AD
:109C60001B023A6A13433B62FB681B791B043A6A86
:109C700013433B62FB685B791B063A6A13433B6202
:109C8000FB689B79FB83FB68DB791B029AB2FB8B39
:109C900013439BB2FB83FB689B689B88BB83FB6879
:109CA0005B7803F00403002B02D03B6A7B620BE07D
:109CB000FB685B7803F00803002B05D03A6ABB6BA6
:109CC00013447B627B6ABB63FFF7F2FA03463B6196
:109CD000BB8B07F1100210461946FFF7BBFA386834
:109CE00000F03EFC0346BB61FB689B681B681C6878
:109CF000FB689A68BB8BDBB2F98B009107F114010A
:109D000001911046B9697A6AA0470346FB75BB8A80
:109D10001BB23868194600F0F3F9FB7D012B03D024
:109D2000022B03D0002B12E0BB6B11E0B86800F0EF
:109D3000E7FE0346002B0CBF00230123DBB2002B00
:109D400001D0BB6B04E0786814F0CEFC00BFBFE725
:109D500018462C37BD4690BD80B58CB002AF7860F8
:109D60007B683B6200237B623B6A1B68FB613B6A4A
:109D70005B68BB613B6A9B687B6107F10803B8695C
:109D800019464FF0FF3200F0C9FE0346002B36D0D3
:109D90007869002114F0C6FC3B7A042B19D801A283
:109DA00052F823F0E19D0008E19D0008B99D0008EC
:109DB000E19D0008E19D000807F108037A6A00921E
:109DC0001846B9697A69FB69FFF73EFF03467B6273
:109DD00007E00B480B490C4AE323FFF7BBFBFEE708
:109DE00000BFB86900F08CFE0346002B14BF0023AF
:109DF0000123DBB2002B02D0786914F075FCBCE7BC
:109E0000140E0020889B03089C9B030880B582B039
:109E100000AF78600B46FB700A484421FFF7ACFAAC
:109E200002467B681A607B681B68002283F83C202E
:109E30007B681B68FA785A637B6818460837BD460A
:109E400080BD00BF140E002080B588B000AF7860E0
:109E500039603C497A6813469B0013440B441B78D5
:109E600007F118021046194601F0A8F835497A683A
:109E700013469B0013440B445B7807F11002104615
:109E8000194601F09BF82F497A6813469B0013444A
:109E90000B449B7807F108021046194601F08EF832
:109EA00007F118031846002100F0BAFF07F110036C
:109EB0001846002100F0B4FF07F1080318460021FE
:109EC00000F0AEFF07F11803184601F093F807F110
:109ED00018031846002101F029F93B68012B02D034
:109EE000022B0BD015E007F11003184601F082F8A1
:109EF00007F10803184601F07DF80AE007F11003A6
:109F0000184601F08DF807F10803184601F088F8AB
:109F100000BF07F118031846012101F007F907F106
:109F20001003184601F07CF807F10803184601F009
:109F300077F83B68DAB204497B680B441A70203723
:109F4000BD4680BD089C03087C11002080B500AF91
:109F500000200121FFF778FF01200121FFF774FFA6
:109F600002200121FFF770FF80BD00BF80B586B0E1
:109F700002AF78607B681B685B6BFB607B6819686D
:109F8000FA6813469B001344DB00574A13448B6066
:109F90007B681B680022DA607B681B68012283F8FB
:109FA00020207B681B68FA689100504A0A445A6175
:109FB0007B681B685B6918460A2100F0C1FD7B685D
:109FC0001B68FA6891004A4A0A449A617B681B68D8
:109FD000FA689100474A0A44DA617B681B680122EB
:109FE00083F830207B681B6800221A747B681B682A
:109FF00000225A827B681B680022A3F840203E4959
:10A00000FA6813469B0013440B441B78184603F070
:10A0100033FA3949FA6813469B0013440B445B78C2
:10A02000184603F029FA3449FA6813469B00134492
:10A030000B449B781846012106F0EEFE2E49FA6883
:10A0400013469B0013440B449B7818464CF2503146
:10A0500007F0CAF82849FA6813469B0013440B44DA
:10A060009B781846002107F047F87B681B680022A0
:10A0700083F83D207B681B68002283F83E201E4940
:10A08000FA6813469B0013440B44DB78184607F02C
:10A09000E9F97B681B687A6812689269DA627B6802
:10A0A0001B687A685A627B681B687A681268526912
:10A0B0009A627B681B682433002200920F4819467D
:10A0C00003224FF4C873FFF759F87B681B68FA68DE
:10A0D0009A637B681B68012283F83C2001231846A1
:10A0E0001037BD4680BD00BF8C10002080110020BD
:10A0F00098110020B0110020E89B0308599D00082A
:10A1000080B582B000AF786039607B681B6893F8D7
:10A110002030002B07D03868104940F2B63200F0EA
:10A120001DFD386006E038680D494FF47A7200F082
:10A1300015FD38607B681B68B3F840301AB23B6885
:10A140009A4208D07B681A683B689BB21BB21046E3
:10A15000194600F007F80837BD4680BD4AFCFFFFEE
:10A1600018FCFFFF80B588B000AF78600B467B809D
:10A170007B88BB83B7F91C30002B06DA0123FB7701
:10A18000BB8B5B429BB2BB8301E00023FB777B6808
:10A1900093F83D30012B06D1FB7F002B14BF002329
:10A1A0000123DBB2FB77BB8B1A46920013441A469D
:10A1B00091001A460B4613445B007B837B68DB6986
:10A1C00018464FF0FF3114F0ADFA786800F06CFCDF
:10A1D0000346022B14BF00230123DBB2002B18D04F
:10A1E000786800F04DFC78617B69DB781A46494B52
:10A1F00053F822301B687A88A3F840207B691B79CA
:10A200001A46444B53F822301B687A88A3F8402042
:10A2100003E07B687A88A3F840207B689A6B3E490C
:10A2200013469B0013440B441B783B617B689A6B7D
:10A23000394913469B0013440B445B78FB607B68F1
:10A240009A6B354913469B0013440B449B78BB60C3
:10A250000EF018FABB68DBB2184606F0F7FFFB7F7A
:10A26000002B10D13B69DBB2184603F075FA3B694D
:10A27000DBB21846012103F0C5FBFB68DBB21846D0
:10A2800003F0FCFA0FE0FB68DBB2184603F064FA57
:10A29000FB68DBB21846012103F0B4FB3B69DBB27B
:10A2A000184603F0EBFA7B8B002B15D13B69DBB230
:10A2B000184603F051FA3B69DBB21846012103F05E
:10A2C000A1FBFB68DBB2184603F046FAFB68DBB281
:10A2D0001846012103F096FBBB68DBB2184600214B
:10A2E00006F0ECFEBB68DAB27B8B1046194606F02E
:10A2F00003FFBB68DBB2184606F0C6FF00200EF075
:10A30000CBF97B68DB69184614F0EEF92037BD46BF
:10A3100080BD00BF24000020E89B030880B588B002
:10A3200000AFF860B960FA807B71FB681B6800229F
:10A3300083F83020FB681B689B691846002114F0E5
:10A34000F1F902233B7500237B757B79002B04D048
:10A350007B7D43F00203DBB27B757B7D43F004031E
:10A36000DBB27B75BB68DBB2BB75BB681B12DBB2B3
:10A37000FB75BB681B14DBB23B76BB681B16DBB2FC
:10A380007B76FB88DBB2BB76FB881B12DBB2FB76ED
:10A39000FB681B689B68FB61FB681B685A6907F1D7
:10A3A00014031046194649F6404200F0F1FB0346FB
:10A3B00083F00103DBB2002B07D011481149124A88
:10A3C0004FF4DC73FFF7C6F8FEE77B79002B11D062
:10A3D000F8680E4900F0A0F8034683F00103DBB2F1
:10A3E000002B07D006480749074A40F2BB13FFF786
:10A3F000B1F8FEE7012318462037BD4680BD00BFF7
:10A40000140E0020889B03089C9B030880380100E1
:10A4100080B588B000AFF860B960FA807B71FB68E6
:10A420001B68002283F83020FB681B689B69184674
:10A43000002114F077F902233B7500237B757B79AB
:10A44000002B04D07B7D43F00203DBB27B757B7D68
:10A4500043F00803DBB27B75BB68DBB2BB75BB683E
:10A460001B12DBB2FB75BB681B14DBB23B76BB680F
:10A470001B16DBB27B76FB88DBB2BB76FB881B123C
:10A48000DBB2FB76FB681B689B68FB61FB681B68A3
:10A490005A6907F114031046194649F6404200F084
:10A4A00077FB034683F00103DBB2002B07D0114892
:10A4B0001149124A40F2D513FFF74CF8FEE77B79B9
:10A4C000002B11D0F8680E4900F026F8034683F0FF
:10A4D0000103DBB2002B07D006480749074A4FF4B7
:10A4E000EC73FFF737F8FEE7012318462037BD4627
:10A4F00080BD00BF140E0020889B03089C9B0308AE
:10A500008038010080B483B000AF78600C37BD465E
:10A510005DF8047B704700BF80B582B000AF786003
:10A5200039607B681B6893F83030002B01D0012321
:10A5300011E07B681B689B691846396814F0F2F8D3
:10A540000346002B06D07B681B68012283F830206D
:10A55000012300E0002318460837BD4680BD00BF38
:10A5600080B582B000AF78607B681B685A6B074982
:10A5700013469B0013440B44DB78184607F0E8F8B9
:10A58000034618460837BD4680BD00BFE89B030858
:10A5900080B582B000AF78607B681B685A6B064953
:10A5A00013469B0013440B44DB78184607F0F8F879
:10A5B0000837BD4680BD00BFE89B030880B586B064
:10A5C00000AF78607B681B685A6B2D4913469B006F
:10A5D00013440B441B797B612A497A6913469B001B
:10A5E00013440B44DB783B6126497A6913469B0090
:10A5F00013440B441B79FB60234A7B6913441B788B
:10A60000022B00D138E01E493A6913469B001344DF
:10A610000B449B78184606F0BDFC78690221FFF7D1
:10A6200013FC17493A6913469B0013440B449B786B
:10A63000184606F08BFC154B3A6953F822301B681C
:10A64000FA689A63114BFA6853F822301B68FA686B
:10A650009A630E4BFA6853F822301A687B681B68BD
:10A66000596B0A4B53F821301B68B3F840301BB2CA
:10A6700010461946FFF776FD1837BD4680BD00BF6E
:10A68000E89B0308089C03087C110020240000209C
:10A6900080B586B000AF78607B681B685A6B28492C
:10A6A00013469B0013440B441B797B6125497A694F
:10A6B00013469B0013440B44DB783B6121497A69C4
:10A6C00013469B0013440B441B79FB601E4A7B69B5
:10A6D00013441B78012B00D12FE01949FA68134667
:10A6E0009B0013440B449B78184606F053FC786992
:10A6F0000121FFF7A9FB1249FA6813469B00134496
:10A700000B449B78184606F021FC104B3A6953F82D
:10A7100022301B680D4A396952F821201268526BA9
:10A720009A630A4BFA6853F822301B68074AF968A3
:10A7300052F821201268526B9A631837BD4680BDCB
:10A74000E89B0308089C03087C11002024000020DB
:10A7500080B582B000AF78600B46FB707B681B68E9
:10A76000FA7883F83D207B681A687B681B68B3F829
:10A7700040301BB210461946FFF7F4FC0837BD46BF
:10A7800080BD00BF80B582B000AF78600B46FB7023
:10A790007B681B68FA7883F83E200F484FF0FF3142
:10A7A00013F0C0FF7B681B685A6B0C4913469B0073
:10A7B00013440B44DA78FB78002B0CBF00230123F1
:10A7C000DBB21046194606F0A1FF034813F08CFFD8
:10A7D0000837BD4680BD00BFB0110020E89B0308CC
:10A7E00080B483B000AF78607B681B6893F83D301D
:10A7F00018460C37BD465DF8047B704780B483B0C3
:10A8000000AF78607B681B6893F83E3018460C37C1
:10A81000BD465DF8047B704790B583B000AF7860AB
:10A82000054C064B9C4204D0043C204600F04CF9F9
:10A83000F7E70C37BD4690BD98110020801100202D
:10A8400090B583B000AF7860054C064B9C4204D0B5
:10A85000043C204613F010FFF7E70C37BD4690BDCF
:10A86000B01100209811002090B583B000AF78603F
:10A87000054C064B9C4204D0043C204613F0FCFEE1
:10A88000F7E70C37BD4690BDC8110020B01100207D
:10A89000F0B583B000AF786039607B68012B40F081
:10A8A0009C803A684FF6FF739A420BD14C4B0524BB
:10A8B0001D4604E0284600F07FF92835013CB4F13C
:10A8C000FF3FF7D13B68B3F5F97F10D1454D052423
:10A8D0002E4604E0304600F005F90436013CB4F1A0
:10A8E000FF3FF7D100204049404A1EF0C9FA3A68BC
:10A8F00040F2F1139A4210D13D4D05242E4604E05A
:10A90000304613F0ABFE0436013CB4F1FF3FF7D103
:10A9100000203849354A1EF0B3FA3B68B3F5F87F9A
:10A9200010D1354D05242E4604E0304613F096FE36
:10A930000436013CB4F1FF3FF7D100202F492B4AE8
:10A940001EF09EFA3A684FF6FF739A4245D12C48A2
:10A950000021FFF75BFA2B480121FFF757FA2A483D
:10A960000221FFF753FA29480321FFF74FFA28483D
:10A970000421FFF74BFA27480521FFF747FA2CE09F
:10A98000002D0AD0C4F105039B00EC18AC4204D0A2
:10A99000043C204600F098F8F8E71EF0ABF9002DD3
:10A9A0000AD0C4F105039B00EC18AC4204D0043C6F
:10A9B000204613F061FEF8E71EF09CF9002D0AD046
:10A9C000C4F105039B00EC18AC4204D0043C2046C3
:10A9D00013F052FEF8E71EF08DF90C37BD46F0BDBE
:10A9E0008C1000208011002019A800080000002011
:10A9F0009811002041A80008B011002069A80008A3
:10AA0000C8110020CC110020D0110020D41100204A
:10AA1000D8110020DC11002080B500AF01204FF4D8
:10AA2000F871FFF735FF80BD80B500AF012040F21F
:10AA3000F111FFF72DFF80BD80B500AF01204FF46D
:10AA4000F971FFF725FF80BD80B500AF01204FF6FB
:10AA5000FF71FFF71DFF80BD80B483B000AF786049
:10AA60007B685A6B054913469B0013440B441B79C2
:10AA700018460C37BD465DF8047B7047E89B030819
:10AA800080B582B000AF78607868FFF7E5FF0246D6
:10AA900013469B001344034A134418460837BD4627
:10AAA00080BD00BF089C030880B582B000AF78600D
:10AAB0007868FFF7D1FF0346024AD35C184608378F
:10AAC000BD4680BD7C11002080B582B000AF7860AB
:10AAD0007B68184613F03AFC7B6818460837BD4679
:10AAE00080BD00BF80B582B000AF78607B6818463B
:10AAF00013F01AFC7B6818460837BD4680BD00BFBE
:10AB000080B582B000AF78607B68184613F096FD80
:10AB1000034618460837BD4680BD00BF80B584B0E7
:10AB200000AFF860B9607A60FB681846B9687A6867
:10AB300013F0F4FC034618461037BD4680BD00BF35
:10AB400080B582B000AF786039607B68184639689C
:10AB50000C2213F017FC0837BD4680BD80B485B0C9
:10AB600000AFF860B9607A60FA687B689A4201DDEC
:10AB70007B68FB60FA68BB689A4201DABB68FB60DD
:10AB8000FB6818461437BD465DF8047B704700BF6C
:10AB900080B584B000AFF860B9607A60FB68184691
:10ABA000B9687A6813F010FC034618461037BD46A2
:10ABB00080BD00BF0000000080B582B000AF7860AB
:10ABC0007B68184600F01CF97B68104A1A607B68A5
:10ABD00000229A717B684FF000029A607B684FF008
:10ABE0000002DA607B684FF000021A617B68084A55
:10ABF0005A617B684FF085429A617B6801229A8096
:10AC00007B6818460837BD4680BD00BF909C03088E
:10AC100000008C4280B586B000AFF860B9607A6001
:10AC2000FB703B8CB3F57A7F06D971487149724A43
:10AC30002723FEF78FFCFEE7FB685B69184624F0CC
:10AC4000C5FC02460B461046194667A3D3E900230C
:10AC500024F010FD02460B461046194624F0A4FFCE
:10AC60000246FB68DA61FB6893ED067AF2EE0E7A33
:10AC700067EE277AFB68C3ED087AFB6893ED067AE6
:10AC8000F6EE007A67EE277AFB68C3ED097A7A68F8
:10AC9000BB68D31A3B613B69312B13DC3B6913F171
:10ACA000310F0FDBFB6893ED027AFB783A6902FB08
:10ACB00003F306EE903AF8EEE67A77EE277AFB6831
:10ACC000C3ED027A3B6907EE903AB8EEE77AFB688B
:10ACD000D3ED047A77EE677AFB68C3ED037AFB68FD
:10ACE00093ED037AFB7806EE903AF8EEE67AC7EE3B
:10ACF000277AFB68C3ED037A3B6907EE103AF8EE5A
:10AD0000C77AFB68C3ED047AFB6893ED077A3B6969
:10AD100007EE903AF8EEE76AFB6893ED026AFB688B
:10AD2000D3ED087AC6EE277A76EEA76AFB6893ED34
:10AD3000096AFB68D3ED037A66EE277A76EEA77A86
:10AD400067EE277AFDEEE77A17EE903A7B617B6932
:10AD5000002B03DA7B69A3F5FA737B617B69002B17
:10AD600003DD7B6903F5FA737B613A8C7B699A4258
:10AD700001DA3B8C7B613B8C5A427B699A4202DD53
:10AD80003B8C5B427B617B69002B01D101237B61A2
:10AD90007B699AB27B6A1A803B69022B1ADC3B6999
:10ADA00013F1020F16DBFB684FF000029A60FB689C
:10ADB0009B790133DAB2FB689A717B6A00221A80B0
:10ADC000FB689B79032B04D1FB6800229A71022354
:10ADD00004E002E0FB6800229A710023184618374D
:10ADE000BD4680BDAFF30080333333333333E33FAD
:10ADF000140E0020189C03082C9C0308AFF300805D
:10AE000080B483B000AF78607B68044A1A607B68C6
:10AE100018460C37BD465DF8047B7047C09C03089C
:10AE200080B582B000AF78600B46FB70FB78002BDA
:10AE300004D17B681B79184602F01EFBFB78012BBE
:10AE40001AD17B681B79184604F0DAFC03461846D1
:10AE50000021012204F054FD7B681B791846012172
:10AE600002F040FB7B681B79184602F0DBFB7B6835
:10AE70001B79184602F000FBFB78022B24D17B687B
:10AE80001B79184604F0BCFC034618460021012239
:10AE900004F036FD7B681B791846012102F022FB85
:10AEA0007B681B79184602F0BDFB7B681B7918464E
:10AEB00003F0AEFC7B681B79184603F067FC7B68E7
:10AEC0001B79184602F0D8FAFB78032B0ED17B6869
:10AED0001B79184603F09CFC7B681B79184603F02D
:10AEE00055FC7B681B79184602F0C6FA0837BD4648
:10AEF00080BD00BF80B582B000AF786013460A46BF
:10AF0000FA70BB707B68FA781A71BB78786819465A
:10AF1000FFF786FF0837BD4680BD00BF80B483B011
:10AF200000AF786039603B681A687B681A607B689C
:10AF30001B68383B1B687A6813443A6852681A6089
:10AF40007B6818460C37BD465DF8047B704700BF30
:10AF500080B582B000AF78607B68184600F06CFF67
:10AF6000064A7B681A6000237A681344034A1A6011
:10AF70007B6818460837BD4680BD00BF60AA03083D
:10AF800080B485B000AFF860B9601346FB71BB6850
:10AF90001A68FB681A60FB681B68383B1B68FA6814
:10AFA0001344BA6852681A60FB68FA791A71FB6830
:10AFB00018461437BD465DF8047B704780B582B0F3
:10AFC00000AF78600B46FB707B68184600F034FFDA
:10AFD000074A7B681A6000237A681344044A1A609F
:10AFE0007B68FA781A717B6818460837BD4680BDC1
:10AFF00060AA030880B582B000AF78607B681B79D7
:10B00000184602F0A9FB7B681B79184602F0D8FBB2
:10B010007B681B79184602F05FFC0837BD4680BD8F
:10B0200080B582B000AF78607B681B79184602F06B
:10B0300025FC7B681B79184602F04EFC0837BD469C
:10B0400080BD00BF80B582B000AF78607B681B799F
:10B05000184602F013FC7B681B79184602F06AFC64
:10B060000837BD4680BD00BF80B582B000AF7860B4
:10B070007B681B79184602F001FC7B681B79184637
:10B0800002F08CFC0837BD4680BD00BF80B582B0A1
:10B0900000AF78607B681B79184602F05DFB7B6827
:10B0A0001B79184602F0B8FB7B681B79184602F042
:10B0B00013FC0837BD4680BD80B582B000AF786014
:10B0C0007B681B79184602F047FB7B681B791846A2
:10B0D00002F0A2FB7B681B79184602F02BFC0837B4
:10B0E000BD4680BD80B582B000AF78607B681B79BB
:10B0F000184602F031FB7B681B79184602F08CFB86
:10B100007B681B79184602F049FC0837BD4680BDB4
:10B1100080B582B000AF78607B681B79184602F07A
:10B12000F7FA034618460837BD4680BD80B582B0A1
:10B1300000AF78600B46FB707B681A79FB7810468D
:10B14000194602F05FFC0837BD4680BD80B582B06D
:10B1500000AF78607B681B79184602F087FC0837DF
:10B16000BD4680BD80B582B000AF78607B681B793A
:10B17000184602F081F90837BD4680BD80B483B01F
:10B1800000AF786039603B681A687B681A607B683A
:10B190001B68503B1B687A6813443A6852681A600F
:10B1A0007B681B68383B1B687A6813443A6892686E
:10B1B0001A607B681B68543B1B687A6813443A68C2
:10B1C000D2681A607B6818460C37BD465DF8047B70
:10B1D000704700BF80B582B000AF78607B680433F1
:10B1E000184600F029FE7B681A1D114B10461946BF
:10B1F000FFF794FE7A680F4B1046194600F02CFEBC
:10B200000D4A7B681A6004237A6813440B4A1A605B
:10B2100004237A681344094A1A6000237A681344A5
:10B22000054A1A607B6818460837BD4680BD00BFD6
:10B23000D8A80308E0A8030824A803089CA80308CA
:10B2400080B485B000AFF860B9601346FB71BB688D
:10B250001A68FB681A60FB681B68503B1B68FA6839
:10B260001344BA6852681A60FB681B68383B1B6855
:10B27000FA681344BA6892681A60FB681B68543B0A
:10B280001B68FA681344BA68D2681A60FB681846EB
:10B290001437BD465DF8047B704700BF80B582B0AF
:10B2A00000AF78600B46FB707B680433184600F0F3
:10B2B000C3FD7B68191D124AFB78084611461A46E1
:10B2C000FFF75EFE7A680F4B1046194600F0C4FD8A
:10B2D0000D4A7B681A6004237A6813440B4A1A608B
:10B2E00004237A681344094A1A6000237A681344D5
:10B2F000054A1A607B6818460837BD4680BD00BF06
:10B30000D8A80308E0A8030824A803089CA80308F9
:10B3100080B582B000AF78607B681B68503B1B68CB
:10B320007A6813441B79184602F07CF90837BD4649
:10B3300080BD00BF80B584B000AFF8600B467A6076
:10B34000FB72FB681B68503B1B68FA6813441B794F
:10B35000184602F067F9FB7A002B10D1FB681B68D6
:10B36000503B1B68FA6813441B79184604F048FAEE
:10B37000034618467968012204F0C2FA0FE0FB6820
:10B380001B68503B1B68FA6813441B79184604F08D
:10B3900037FA034618467968032204F0B1FAFB68CD
:10B3A0001B68503B1B68FA6813441B79184601213F
:10B3B00002F098F8FB681B68503B1B68FA6813445E
:10B3C0001B79184602F046F9FB681B683C331B6882
:10B3D000F868002198471037BD4680BD80B584B01D
:10B3E00000AFF8600B467A60FB72FB681B68503B4D
:10B3F0001B68FA6813441B79184602F013F9FB7AAC
:10B40000002B10D1FB681B68503B1B68FA68134483
:10B410001B79184604F0F4F90346184679680122AE
:10B4200004F06EFA0FE0FB681B68503B1B68FA687B
:10B4300013441B79184604F0E3F90346184679686B
:10B44000032204F05DFAFB681B68503B1B68FA6836
:10B4500013441B791846002102F044F8FB681B686E
:10B46000503B1B68FA6813441B79184602F0F2F847
:10B47000FB681B683C331B68F8680021984710374D
:10B48000BD4680BD80B584B000AFF8600B467A60E1
:10B49000FB72FB681B68503B1B68FA6813441B79FE
:10B4A000184602F0BFF8FB7A002B10D1FB681B682E
:10B4B000503B1B68FA6813441B79184604F0A0F946
:10B4C000034618467968012204F01AFA0FE0FB6877
:10B4D0001B68503B1B68FA6813441B79184604F03C
:10B4E0008FF9034618467968032204F009FAFB68CD
:10B4F0001B68503B1B68FA6813441B7918460221ED
:10B5000001F0F0FFFB681B68503B1B68FA681344AE
:10B510001B79184602F09EF8FB681B683C331B68D9
:10B52000F868002198471037BD4680BD80B582B0CD
:10B5300000AF786039607B681B68503B1B687A6895
:10B5400013441B79184604F05BF903461846396822
:10B5500004F084F90346002B0CBF00230123DBB267
:10B5600018460837BD4680BD80B483B000AF786010
:10B5700039603B681A687B681A607B681B684C3BC3
:10B580001B687A6813443A6852681A607B681B68C3
:10B59000383B1B687A6813443A6892681A607B6883
:10B5A0001B68503B1B687A6813443A68D2681A607B
:10B5B0007B6818460C37BD465DF8047B704700BFBA
:10B5C00080B582B000AF78607B680433184600F025
:10B5D00033FC7B681A1D114B10461946FFF79EFC81
:10B5E0007A680F4B1046194600F050FC0D4A7B68F4
:10B5F0001A6004237A6813440B4A1A6004237A6899
:10B600001344094A1A6000237A681344054A1A60F1
:10B610007B6818460837BD4680BD00BF80A603087A
:10B6200088A60308D0A5030844A6030880B485B003
:10B6300000AFF860B9601346FB71BB681A68FB681D
:10B640001A60FB681B684C3B1B68FA681344BA68B5
:10B6500052681A60FB681B68383B1B68FA68134421
:10B66000BA6892681A60FB681B68503B1B68FA68EE
:10B670001344BA68D2681A60FB6818461437BD468E
:10B680005DF8047B704700BF80B582B000AF786082
:10B690000B46FB707B680433184600F0CDFB7B68DB
:10B6A000191D124AFB78084611461A46FFF768FC36
:10B6B0007A680F4B1046194600F0E8FB0D4A7B688C
:10B6C0001A6004237A6813440B4A1A6004237A68C8
:10B6D0001344094A1A6000237A681344054A1A6021
:10B6E0007B6818460837BD4680BD00BF80A60308AA
:10B6F00088A60308D0A5030844A6030880B582B035
:10B7000000AF78607B681B684C3B1B687A68134409
:10B710001B79184603F07CF80837BD4680BD00BF92
:10B7200080B582B000AF78607B681B684C3B1B68BB
:10B730007A6813441B79184603F028F80837BD4689
:10B7400080BD00BF80B582B000AF78607B681B68A9
:10B750004C3B1B687A6813441B79184603F0E2F9E6
:10B7600003465B0007EE903AB8EEE77ADFED047A25
:10B77000C7EE277AB0EE670A0837BD4680BD00BF26
:10B780000030274580B582B000AF78607B681B68C9
:10B790004C3B1B687A6813441B79184603F0C2F9C6
:10B7A000034618460837BD4680BD00BF80B582B04D
:10B7B00000AF786039607A683B68043310461946F8
:10B7C000FFF7D2FE7B681A1D3B68143310461946FA
:10B7D000FFF7D4FC3B681A687B681A607B681B68BB
:10B7E0004C3B1B687A6813443A68526A1A607B685B
:10B7F0001B68383B1B687A6813443A68926A1A607F
:10B800007B681B68503B1B687A6813443A68D26AAD
:10B810001A603B681A6B7B685A607B681B68543BF4
:10B820001B687A6813443A68526B1A607B681B681D
:10B83000583B1B687A6813443A68926B1A607B68BD
:10B8400018460837BD4680BD80B582B000AF78602D
:10B850007B680833184600F0EFFA7B6803F10802B2
:10B86000254B10461946FFF759FB7A68234B1046C3
:10B87000194600F00BFB7B681A1D214B1046194638
:10B8800000F0EAFA7B6803F110021E4B10461946DD
:10B8900000F016FB7A681C4B10461946FFF764FE51
:10B8A0007B681A1D194B10461946FFF767FC184AAA
:10B8B0007B681A6008237A681344164A1A600823C2
:10B8C0007A681344134A1A6000237A681344104AB2
:10B8D0001A60114A7B685A6004237A6813440E4A3E
:10B8E0001A6010237A6813440C4A1A607B68184661
:10B8F0000837BD4680BD00BF4C9F0308549F030816
:10B900005C9F0308649F0308149F0308249F030897
:10B91000489D0308509E0308D89D0308D09E030845
:10B9200080B584B000AFF860B9601346FB71F96868
:10B93000BB681A1DFB79084611461A46FFF776FECA
:10B94000FB68191DBB6803F11402FB790846114618
:10B950001A46FFF775FCBB681A68FB681A60FB683B
:10B960001B684C3B1B68FA681344BA68526A1A6039
:10B97000FB681B68383B1B68FA681344BA68926A14
:10B980001A60FB681B68503B1B68FA681344BA686E
:10B99000D26A1A60BB681A6BFB685A60FB681B6846
:10B9A000543B1B68FA681344BA68526B1A60FB6810
:10B9B0001B68583B1B68FA681344BA68926B1A609C
:10B9C000FB6818461037BD4680BD00BF80B582B009
:10B9D00000AF78600B46FB707B680833184600F0B8
:10B9E0002BFA7B6803F10801284AFB7808461146C8
:10B9F0001A46FFF7C5FA7A68254B1046194600F03B
:10BA000045FA7B681A1D234B1046194600F024FAAC
:10BA10007B6803F11002204B1046194600F050FAE3
:10BA200079681E4AFB78084611461A46FFF7FEFD64
:10BA30007B68191D1A4AFB78084611461A46FFF71B
:10BA4000FFFB184A7B681A6008237A681344164A79
:10BA50001A6008237A681344134A1A6000237A682C
:10BA60001344104A1A60114A7B685A6004237A68AA
:10BA700013440E4A1A6010237A6813440C4A1A6061
:10BA80007B6818460837BD4680BD00BF4C9F030841
:10BA9000549F03085C9F0308649F0308149F0308D6
:10BAA000249F0308489D0308509E0308D89D03085F
:10BAB000D09E030880B582B000AF78607B681B68B9
:10BAC0004C3B1B687A6813441B79184601F0AAFDA9
:10BAD0007B681B684C3B1B687A6813441B791846CB
:10BAE00002F096FE0837BD4680BD00BF80B582B02B
:10BAF00000AF78607B681B684C3B1B687A68134416
:10BB00001B79184601F08EFD7B681B684C3B1B6857
:10BB10007A6813441B79184602F038FE0837BD4690
:10BB200080BD00BF80B582B000AF78607B681B68C5
:10BB30000C3B1B687A6813441846FFF75BFA08371A
:10BB4000BD4680BD80B582B000AF78607B681B6861
:10BB50001C3B1B687A6813441846FFF761FA0837E4
:10BB6000BD4680BD80B582B000AF78607B681B6841
:10BB7000203B1B687A6813441846FFF763FA0837BE
:10BB8000BD4680BD80B582B000AF78607B681B6821
:10BB9000243B1B687A6813441846FFF765FA083798
:10BBA000BD4680BD80B582B000AF78607B681B6801
:10BBB000103B1B687A6813441846FFF767FA08378A
:10BBC000BD4680BD80B582B000AF78607B681B68E1
:10BBD000143B1B687A6813441846FFF76DFA083760
:10BBE000BD4680BD80B582B000AF78607B681B68C1
:10BBF000183B1B687A6813441846FFF773FA083736
:10BC0000BD4680BD80B582B000AF78607B681B68A0
:10BC1000283B1B687A6813441846FFF779FA0346F5
:10BC200018460837BD4680BD80B582B000AF786049
:10BC30000B46FB707B681B682C3B1B687A681344BF
:10BC40001A46FB7810461946FFF770FA0837BD46CA
:10BC500080BD00BF80B582B000AF78607B681B6894
:10BC6000303B1B687A6813441846FFF76FFA0837B1
:10BC7000BD4680BD80B582B000AF78607B681B6830
:10BC8000343B1B687A6813441846FFF76BFA083791
:10BC9000BD4680BD80B582B000AF78607B681B6810
:10BCA0003C3B1B687A6813441846FFF731FB0837A2
:10BCB000BD4680BD80B584B000AFF8600B467A60A9
:10BCC000FB72FB681B68403B1B68FA6813441A460A
:10BCD000FB7A104619467A68FFF72CFB1037BD46F1
:10BCE00080BD00BF80B584B000AFF8600B467A60BD
:10BCF000FB72FB681B68443B1B68FA6813441A46D6
:10BD0000FB7A104619467A68FFF768FB1037BD4684
:10BD100080BD00BF80B584B000AFF8600B467A608C
:10BD2000FB72FB681B68483B1B68FA6813441A46A1
:10BD3000FB7A104619467A68FFF7A4FB1037BD4618
:10BD400080BD00BF80B582B000AF786039607B688D
:10BD50001B684C3B1B687A68134418463968FFF728
:10BD6000E5FB034618460837BD4680BD80B582B066
:10BD700000AF78607B681B683C3B1B687A681344A3
:10BD80001846FFF7BBFC0837BD4680BD80B582B0C2
:10BD900000AF78607B681B68403B1B687A6813447F
:10BDA0001846FFF7BDFC0837BD4680BD80B582B0A0
:10BDB00000AF78607B681B68443B1B687A6813445B
:10BDC0001846FFF7BFFCF0EE407AB0EE670A08377E
:10BDD000BD4680BD80B582B000AF78607B681B68CF
:10BDE000483B1B687A6813441846FFF7CBFC0346B0
:10BDF00018460837BD4680BD80B582B000AF786078
:10BE00007B681B683C3B1B687A6813441846FFF745
:10BE100051FE0837BD4680BD80B582B000AF786066
:10BE20007B681B68403B1B687A6813441846FFF721
:10BE30005DFE0837BD4680BD80B483B000AF78603A
:10BE40007B68044A1A607B6818460C37BD465DF86B
:10BE5000047B704790AB030880B483B000AF786078
:10BE600039603B681A687B681A607B681B68383BDE
:10BE70001B687A6813443A6852681A607B681846EF
:10BE80000C37BD465DF8047B704700BF80B483B0BB
:10BE900000AF786039603B681A687B681A607B681D
:10BEA0001B68383B1B687A6813443A6852681A600A
:10BEB0007B6818460C37BD465DF8047B704700BFB1
:10BEC00080B483B000AF786039603B681A687B68E3
:10BED0001A607B681B68503B1B687A6813443A6899
:10BEE00052681A607B681B68383B1B687A68134489
:10BEF0003A6892681A607B681B68543B1B687A68D2
:10BF000013443A68D2681A607B6818460C37BD46FD
:10BF10005DF8047B704700BF80B584B000AFF86067
:10BF2000B9601346FB71BB681A68FB681A60FB684E
:10BF30001B68283B1B68FA681344BA6852681A6089
:10BF4000FB68191DFA79124813465B0013445B0025
:10BF500003449B7808461946FFF738FDFB68FA79D9
:10BF60001A76FB6800225A76FB6803F11C01FA7905
:10BF7000074813465B0013445B000344DB78084624
:10BF80001946FFF71BF8FB6818461037BD4680BD01
:10BF9000D8B3030880B582B000AF78600B46FB7061
:10BFA0007B68184600F01EFF174A7B681A60002362
:10BFB0007A681344144A1A607B68191DFA7813488A
:10BFC00013465B0013445B0003449B780846194604
:10BFD000FFF7FCFC7B68FA781A767B6800225A76B9
:10BFE0007B6803F11C01FA78084813465B00134490
:10BFF0005B000344DB7808461946FEF7DFFF7B68E9
:10C0000018460837BD4680BD80B20308D8B3030880
:10C0100080B582B000AF786017481849FDF75CFA28
:10C020007B680C3318460221FEF7FAFE7B681C334E
:10C0300018460021FEF7F4FE7B681C331846FEF715
:10C04000D9FF7B681B6808331B6878680021984714
:10C050007B681B68283B1B687A6813441B681B6855
:10C060007A681268283A126879680A441046984734
:10C070000837BD4680BD00BF140E0020B8AC0308D1
:10C0800080B483B000AF78607B681B7E18460C37A5
:10C09000BD465DF8047B704780B582B000AF786024
:10C0A0000B46FB707B6803F11C02FB7810461946B7
:10C0B000FFF73CF80837BD4680BD00BF80B483B0B1
:10C0C00000AF78607B6800225A760C37BD465DF879
:10C0D000047B704780B584B000AFF860B960134648
:10C0E000FB71F968BB681A1DFB79084611461A46B0
:10C0F000FFF712FFBB681A68FB681A60FB681B68D1
:10C10000283B1B68FA681344BA68D2681A60FB6857
:10C1100003F12401FA79164813465B0013445B00CF
:10C1200003441B7908461946FEF748FFFB6803F1F4
:10C130002C01FA790E4813465B0013445B0003445C
:10C140005B7908461946FEF739FFFB6803F13402B4
:10C15000FB681B68283B1B68F9680B4410461946AE
:10C1600000F06AFEFB6818461037BD4680BD00BF70
:10C17000D8B3030880B582B000AF78600B46FB707F
:10C180007B68184600F02EFE79681E4AFB78084648
:10C1900011461A46FFF7C0FE1B4A7B681A6000234F
:10C1A0007A681344184A1A607B6803F12401FA780C
:10C1B000164813465B0013445B0003441B79084692
:10C1C0001946FEF7FBFE7B6803F12C01FA780F4855
:10C1D00013465B0013445B0003445B790846194631
:10C1E000FEF7ECFE7B6803F13402002379680B4410
:10C1F0001046194600F020FE7B6818460837BD46F9
:10C2000080BD00BFFCB10308D0B10308D8B3030858
:10C2100080B582B000AF78607B681B6820331B68F4
:10C220007A68104698477B685B7E012B00D10EE050
:10C230007B68243318460021FEF7F2FD7B682C331F
:10C2400018460021FEF7ECFD7B6801225A7608377C
:10C25000BD4680BD80B582B000AF78607B681B684A
:10C2600020331B687A68104698477B685B7E042BF6
:10C2700000D113E07B68243318460021FEF7D0FD7F
:10C280007B682C3318460021FEF7CAFD7B683433E7
:10C29000184600F0FFFD7B6804225A760837BD4639
:10C2A00080BD00BF80B584B000AFF860B9601346B0
:10C2B000FB71F968BB681A1DFB79084611461A46DE
:10C2C000FFF72AFEBB681A68FB681A60FB681B68E8
:10C2D000283B1B68FA681344BA68D2681A60FB6886
:10C2E0001B682C3B1B68FA681344BA6812691A6011
:10C2F000FB6803F12401FA791D4813465B001344DF
:10C300005B0003445B780846194612F07BFAFB6831
:10C3100003F13001FA79164813465B0013445B00C1
:10C3200003441B7908461946FEF748FEFB6803F1F3
:10C330003801FA790E4813465B0013445B0003444E
:10C340005B7908461946FEF739FEFB6803F14002A7
:10C35000FB681B68283B1B68F9680B4410461946AC
:10C3600000F06AFDFB6818461037BD4680BD00BF6F
:10C37000D8B3030880B582B000AF78600B46FB707D
:10C380007B68184600F02EFD7B6803F158022B4BAA
:10C390001046194600F036FD7968294AFB780846B0
:10C3A00011461A46FFF7B8FD264A7B681A6000233B
:10C3B0007A681344234A1A6058237A681344224A3D
:10C3C0001A607B6803F12401FA78204813465B0069
:10C3D00013445B0003445B780846194612F012FAD6
:10C3E0007B6803F13001FA78184813465B00134468
:10C3F0005B0003441B7908461946FEF7DFFD7B68A6
:10C4000003F13801FA78114813465B0013445B00CE
:10C4100003445B7908461946FEF7D0FD7B6803F1BB
:10C420004002002379680B441046194600F004FDD1
:10C430007B6818460837BD4680BD00BFBCB0030806
:10C44000ACB0030824B0030880B00308D8B30308D5
:10C4500080B582B000AF78607B681B6820331B68B2
:10C46000786898477B685B7E022B00D109E07B6887
:10C470002433184642F2107112F0FAF97B68022256
:10C480005A760837BD4680BD80B582B000AF78606F
:10C490007B681B6820331B68786898477B685B7EE5
:10C4A000012B00D10EE07B68303318460021FEF7E7
:10C4B000B7FC7B68383318460021FEF7B1FC7B6877
:10C4C00001225A760837BD4680BD00BF80B582B0D4
:10C4D00000AF78607B681B6820331B6878689847DA
:10C4E0007B685B7E042B00D113E07B6830331846F9
:10C4F0000021FEF795FC7B68383318460021FEF7D3
:10C500008FFC7B684033184600F0C4FC7B68042233
:10C510005A760837BD4680BD80B582B000AF7860DE
:10C520007B685B7E022B04D17B682433184612F0B3
:10C53000AFF97B6800225A760837BD4680BD00BF40
:10C5400080B584B000AFF860B9601346FB71F9683C
:10C55000BB681A1DFB79084611461A46FFF7DCFC3A
:10C56000BB681A68FB681A60FB681B68283B1B687D
:10C57000FA681344BA68D2681A60FB681B682C3BDF
:10C580001B68FA681344BA6812691A60FB6803F101
:10C590002401FA791D4813465B0013445B000344F1
:10C5A0001B7808461946FCF7DBF9FB6803F13001FC
:10C5B000FA79164813465B0013445B0003441B7969
:10C5C00008461946FEF7FAFCFB6803F13801FA79D0
:10C5D0000E4813465B0013445B0003445B79084636
:10C5E0001946FEF7EBFCFB6803F14002FB681B6891
:10C5F000283B1B68F9680B441046194600F01CFCE8
:10C60000FB6818461037BD4680BD00BFD8B303088D
:10C6100080B582B000AF78600B46FB707B6818462F
:10C6200000F0E0FB7B6803F158022B4B10461946E3
:10C6300000F006FE7968294AFB78084611461A463A
:10C64000FFF76AFC264A7B681A6000237A68134465
:10C65000234A1A6058237A681344224A1A607B6876
:10C6600003F12401FA78204813465B0013445B0071
:10C6700003441B7808461946FCF772F97B6803F1FE
:10C680003001FA78184813465B0013445B000344FA
:10C690001B7908461946FEF791FC7B6803F13801C7
:10C6A000FA78114813465B0013445B0003445B793E
:10C6B00008461946FEF782FC7B6803F1400200231E
:10C6C00079680B441046194600F0B6FB7B681846A3
:10C6D0000837BD4680BD00BF14AF030804AF030890
:10C6E0008CAE0308E0AE0308D8B3030880B582B06F
:10C6F00000AF78607B681B6820331B687A6810463F
:10C7000098477B685B7E032B00D10BE07B6824336A
:10C7100018464FF4613100220023FCF753F97B687F
:10C7200003225A760837BD4680BD00BF80B582B06F
:10C7300000AF78607B681B6820331B687A681046FE
:10C7400098477B685B7E012B00D10EE07B6830331D
:10C7500018460021FEF764FB7B6838331846002139
:10C76000FEF75EFB7B6801225A760837BD4680BD26
:10C7700080B582B000AF78607B681B6820331B688F
:10C780007A68104698477B685B7E042B00D113E0E3
:10C790007B68303318460021FEF742FB7B68383354
:10C7A00018460021FEF73CFB7B684033184600F03A
:10C7B00071FB7B6804225A760837BD4680BD00BFF6
:10C7C00080B584B000AFF860B9601346FB71F968BA
:10C7D000BB681A1DFB79084611461A46FFF79CFBF9
:10C7E000BB681A68FB681A60FB681B68283B1B68FB
:10C7F000FA681344BA68D2681A60FB681B682C3B5D
:10C800001B68FA681344BA6812691A60FB6803F17E
:10C810002401FA79154813465B0013445B00034476
:10C820001B7908461946FEF7C9FBFB6803F12C018A
:10C83000FA790E4813465B0013445B0003445B79AE
:10C8400008461946FEF720FFFB6803F13802FB6833
:10C850001B68283B1B68F9680B441046194600F01A
:10C86000EBFAFB6818461037BD4680BDD8B3030805
:10C8700080B582B000AF78600B46FB707B681846CD
:10C8800000F0B0FA7B6803F15002234B10461946C2
:10C8900000F0F0FC7968214AFB78084611461A46F8
:10C8A000FFF73AFB1E4A7B681A6000237A6813443C
:10C8B0001B4A1A6050237A6813441A4A1A607B682C
:10C8C00003F12401FA78184813465B0013445B0017
:10C8D00003441B7908461946FEF770FB7B6803F199
:10C8E0002C01FA78104813465B0013445B000344A4
:10C8F0005B7908461946FEF7C7FE7B6803F13802EC
:10C90000002379680B441046194600F095FA7B68BD
:10C9100018460837BD4680BD7CAD03086CAD0308E2
:10C92000F4AC030844AD0308D8B3030880B582B063
:10C9300000AF78607B681B6820331B687A681046FC
:10C9400098477B685B7E012B00D10EE07B68243327
:10C9500018460021FEF764FA7B683033184603213D
:10C96000FEF75EFA7B6801225A760837BD4680BD25
:10C9700080B582B000AF78607B681B6820331B688D
:10C980007A68104698477B685B7E042B00D113E0E1
:10C990007B68243318460021FEF742FA7B68303367
:10C9A00018460021FEF73CFA7B683833184600F041
:10C9B00071FA7B6804225A760837BD4680BD00BFF5
:10C9C00080B582B000AF786039607B68012B18D1E8
:10C9D0003A684FF6FF739A4213D10B480021FFF7D4
:10C9E000C9FC0A480121FFF7C5FC09480221FFF7ED
:10C9F0000FFE08480321FFF73BFF07480421FFF71C
:10CA0000B9FB0837BD4680BDE01100203C12002074
:10CA100098120020F41200204813002080B500AFC7
:10CA200001204FF6FF71FFF7CBFF80BD80B582B0CC
:10CA300000AF78600B46FB707B681B68143B1B687B
:10CA40007A6813441A46FB7810461946FFF724FB10
:10CA50000837BD4680BD00BF80B582B000AF7860AA
:10CA60007B681B680C3B1B687A6813441846FFF709
:10CA7000CFFB0837BD4680BD80B582B000AF78607F
:10CA80007B681B68103B1B687A6813441846FFF7E5
:10CA9000E1FB0837BD4680BD80B582B000AF78604D
:10CAA0007B681B68303B1B687A6813441846FFF7A5
:10CAB000CFFC0837BD4680BD80B582B000AF78603E
:10CAC0007B681B680C3B1B687A6813441846FFF7A9
:10CAD000DBFC0837BD4680BD80B582B000AF786012
:10CAE0007B681B68103B1B687A6813441846FFF785
:10CAF000EDFC0837BD4680BD80B582B000AF7860E0
:10CB00007B681B680C3B1B687A6813441846FFF768
:10CB10000DFE0837BD4680BD80B582B000AF78609D
:10CB20007B681B68103B1B687A6813441846FFF744
:10CB30001FFE0837BD4680BD80B582B000AF78606B
:10CB40007B681B680C3B1B687A6813441846FFF728
:10CB5000EDFE0837BD4680BD80B582B000AF78607D
:10CB60007B681B68103B1B687A6813441846FFF704
:10CB7000FFFE0837BD4680BD80B483B000AF78604B
:10CB80007B68083318460C37BD465DF8047B704758
:10CB900080B582B000AF78607B681B682C3B1B6857
:10CBA0007A6813441846FFF7E7FF0346184608372C
:10CBB000BD4680BD80B582B000AF78607B685B68A1
:10CBC0001B6810331B687A68526810469847034602
:10CBD00018460837BD4680BD80B582B000AF78608A
:10CBE0007B681B681C3B1B687A6813441846FFF778
:10CBF000E1FF034618460837BD4680BD80B582B0C8
:10CC000000AF78607B685B681B6814331B687A68C8
:10CC1000526810469847034618460837BD4680BDFF
:10CC200080B582B000AF78607B681B68203B1B68D2
:10CC30007A6813441846FFF7E1FF034618460837A1
:10CC4000BD4680BD80B582B000AF78607B685B6810
:10CC50001B6804331B687A68526810469847083787
:10CC6000BD4680BD80B582B000AF78607B681B6830
:10CC7000303B1B687A6813441846FFF7E3FF083718
:10CC8000BD4680BD80B582B000AF78607B685B68D0
:10CC90001B681B687A685268104698470837BD467B
:10CCA00080BD00BF80B582B000AF78607B681B6834
:10CCB0000C3B1B687A6813441846FFF7E3FF0837FC
:10CCC000BD4680BD80B582B000AF78607B685B6890
:10CCD0001B6804331B687A68526810469847083707
:10CCE000BD4680BD80B582B000AF78607B681B68B0
:10CCF000103B1B687A6813441846FFF7E3FF0837B8
:10CD0000BD4680BD80B582B000AF78600B46FB7039
:10CD10007B685B681B6808331B687A685168FA781F
:10CD20000846114698470837BD4680BD80B582B099
:10CD300000AF78600B46FB707B681B68143B1B6878
:10CD40007A6813441A46FB7810461946FFF7DAFF53
:10CD50000837BD4680BD00BF80B582B000AF7860A7
:10CD60007B685B681B680C331B687A6852681046E6
:10CD70009847034618460837BD4680BD80B582B047
:10CD800000AF78607B681B68183B1B687A681344A7
:10CD90001846FFF7E1FF034618460837BD4680BD39
:10CDA00080B483B000AF78607B681B68343B1B683D
:10CDB0007A68134418460C37BD465DF8047B70470B
:10CDC00080B582B000AF78607B681B68243B1B682D
:10CDD0007A6813441846FFF7E3FF034618460837FE
:10CDE000BD4680BD80B483B000AF78607B68044AE4
:10CDF0001A607B6818460C37BD465DF8047B7047A7
:10CE0000C0B4030880B483B000AF786039603B6879
:10CE10001A687B681A607B681B68283B1B687A6805
:10CE200013443A6852681A607B6818460C37BD464E
:10CE30005DF8047B704700BF80B582B000AF7860BA
:10CE400039607B681846FFF7CDFF7A680F4B1046B4
:10CE50001946FFF7D7FF0E4A7B681A6000237A68ED
:10CE600013440B4A1A6000237A681344084A1A6074
:10CE70007B683A685A607B6808331846396811F055
:10CE8000B9FD7B6818460837BD4680BD5CB4030811
:10CE90002CB4030880B582B000AF78607B6808339B
:10CEA000184642F2107111F0CBFD0837BD4680BD27
:10CEB00080B483B000AF78607B68143318460C37B9
:10CEC000BD465DF8047B704780B582B000AF7860E6
:10CED0007B681B68183B1B687A6813441846FFF789
:10CEE000E7FF034618460837BD4680BD80B483B0CF
:10CEF00000AF78607B68243318460C37BD465DF878
:10CF0000047B704780B582B000AF78607B681B6897
:10CF10001C3B1B687A6813441846FFF7E7FF03467B
:10CF200018460837BD4680BD80B483B000AF786036
:10CF30007B682C3318460C37BD465DF8047B704780
:10CF400080B582B000AF78607B681B68203B1B68AF
:10CF50007A6813441846FFF7E7FF03461846083778
:10CF6000BD4680BD80B483B000AF78607B68343349
:10CF700018460C37BD465DF8047B704780B582B01B
:10CF800000AF78607B681B68243B1B687A68134499
:10CF90001846FFF7E7FF034618460837BD4680BD31
:10CFA00080B483B000AF78607B68243318460C37B8
:10CFB000BD465DF8047B704780B582B000AF7860F5
:10CFC0007B681B682C3B1B687A6813441846FFF784
:10CFD000E7FF034618460837BD4680BD80B483B0DE
:10CFE00000AF78607B68303318460C37BD465DF87B
:10CFF000047B704780B582B000AF78607B681B68A7
:10D000001C3B1B687A6813441846FFF7E7FF03468A
:10D0100018460837BD4680BD80B483B000AF786045
:10D020007B68383318460C37BD465DF8047B704783
:10D0300080B582B000AF78607B681B68203B1B68BE
:10D040007A6813441846FFF7E7FF03461846083787
:10D05000BD4680BD80B483B000AF78607B6840334C
:10D0600018460C37BD465DF8047B704780B582B02A
:10D0700000AF78607B681B68243B1B687A681344A8
:10D080001846FFF7E7FF034618460837BD4680BD40
:10D0900080B483B000AF78607B682C3318460C37BF
:10D0A000BD465DF8047B704780B582B000AF786004
:10D0B0007B681B682C3B1B687A6813441846FFF793
:10D0C000E7FF034618460837BD4680BD80B483B0ED
:10D0D00000AF78607B68303318460C37BD465DF88A
:10D0E000047B704780B582B000AF78607B681B68B6
:10D0F0001C3B1B687A6813441846FFF7E7FF03469A
:10D1000018460837BD4680BD80B483B000AF786054
:10D110007B68383318460C37BD465DF8047B704792
:10D1200080B582B000AF78607B681B68203B1B68CD
:10D130007A6813441846FFF7E7FF03461846083796
:10D14000BD4680BD80B483B000AF78607B6840335B
:10D1500018460C37BD465DF8047B704780B582B039
:10D1600000AF78607B681B68243B1B687A681344B7
:10D170001846FFF7E7FF034618460837BD4680BD4F
:10D1800080B483B000AF78607B68243318460C37D6
:10D19000BD465DF8047B704780B582B000AF786013
:10D1A0007B681B681C3B1B687A6813441846FFF7B2
:10D1B000E7FF034618460837BD4680BD80B483B0FC
:10D1C00000AF78607B682C3318460C37BD465DF89D
:10D1D000047B704780B582B000AF78607B681B68C5
:10D1E000203B1B687A681344184600F005F8034694
:10D1F00018460837BD4680BD80B582B000AF786064
:10D200007868FFF7DBFF03461A461268383A12685F
:10D21000134418460837BD4680BD00BF80B582B0B4
:10D2200000AF78607B681B68203B1B687A681344FA
:10D230001846FFF7C3FF034618460837BD4680BDB2
:10D2400080B483B000AF786039603B681A687B684F
:10D250001A607B681B68283B1B687A6813443A682D
:10D2600052681A607B6818460C37BD465DF8047B2F
:10D27000704700BF80B483B000AF786039603B680E
:10D280001A687B681A607B681B68283B1B687A6891
:10D2900013443A6852681A607B6818460C37BD46DA
:10D2A0005DF8047B704700BF80B485B000AF786044
:10D2B0000B4B1B68002B02D1094B0A4A1A60084B22
:10D2C0001B68FB60064B1A687B681A44044B1A60A3
:10D2D000FB6818461437BD465DF8047B704700BFF5
:10D2E00094130020FC53002080B483B000AF78601A
:10D2F00039604FF0FF3318460C37BD465DF8047BAC
:10D30000704700BF80B483B000AF78604FF0FF3348
:10D3100018460C37BD465DF8047B704780B483B077
:10D3200000AF786039603B684FF400525A600023C8
:10D3300018460C37BD465DF8047B704780B483B057
:10D3400000AF7860012318460C37BD465DF8047BBA
:10D35000704700BF80B485B000AFF860B9607A60F4
:10D36000002318461437BD465DF8047B704700BFA4
:10D3700080B584B000AFF860B9607A60FB68002BBC
:10D3800005D1B8680121FCF765F9034600E00023E8
:10D3900018461037BD4680BD80B584B000AFF86038
:10D3A000B9607A60FB68012B05D1B868796800F034
:10D3B00011F8034600E0002318461037BD4680BD33
:10D3C00080B400AFFEE700BF80B483B000AF7860E8
:10D3D000FEE700BF80B584B000AF7860396029E017
:10D3E0000023FB6005E0FB680133FB603B68013B09
:10D3F0003B60FB687A6813441B780A2B02D03B68B9
:10D40000002BF0D17868F968FCF70CF9FB687A68B2
:10D4100013441B780A2B09D10A480221FCF702F9B0
:10D420003B68013B3B60FB680133FB60FB687A684B
:10D4300013447B603B68002BD2D118461037BD46A1
:10D4400080BD00BF08B6030880B483B000AF0346B8
:10D45000FB71084B97F907205209F97901F01F0178
:10D46000012000FA01F143F822100C37BD465DF8A7
:10D47000047B704700E100E080B584B000AF034654
:10D48000FB71FA79164913465B001344DB000B4429
:10D4900008331B68184601210DF078F9FA79104914
:10D4A00013465B001344DB000B441B88BB60002366
:10D4B0003B730023BB730023FB7302237B73FA7956
:10D4C000074913465B001344DB000B445A6807F11D
:10D4D0000803104619460CF0C1FC1037BD4680BD4C
:10D4E0000CB6030880B588B000AF02460B46FA714F
:10D4F000BB71FA794A4913465B001344DB000B44C5
:10D5000010331B68002B00F08880FA7944491346D9
:10D510005B001344DB000B4408331B6818460121F1
:10D520000DF034F94FF4804001210DF0A7F90023EC
:10D530003B750023FB75FA79394913465B001344A8
:10D54000DB000B441B883B61FA79354913465B00CD
:10D550001344DB000B445A6807F1100310461946C8
:10D560000CF07CFCFA792E4913465B001344DB0077
:10D570000B4408331979FA79294813465B001344A0
:10D58000DB00034408335B79084619460DF076FB4F
:10D59000FA79234913465B001344DB000B44103334
:10D5A0001B68BB6100233B77BB79002B01D10823AB
:10D5B0007B77BB79012B01D10C237B77BB79022BC5
:10D5C00001D110237B770123BB7707F1180318469D
:10D5D0000CF0C4FAFA79124913465B001344DB00DD
:10D5E0000B4410331B793B7307237B730023BB73FE
:10D5F0000123FB7307F10C0318460BF02BF9FA79A2
:10D60000074913465B001344DB000B4410331B79BE
:10D61000DBB25BB21846FFF717FF2037BD4680BD6F
:10D620000CB6030880B582B000AF0346FB71FA79EF
:10D63000074913465B001344DB000B4408335B7956
:10D640000F2019460DF01AFB0837BD4680BD00BFFC
:10D650000CB6030880B582B000AF0346FB71FA79BF
:10D660000B4913465B001344DB000B440833197964
:10D67000FA79074813465B001344DB000344083380
:10D680005B79084619460DF0F9FA0837BD4680BDAA
:10D690000CB6030880B584B000AF02460B46FA71A1
:10D6A000BB71FA79194913465B001344DB000B4444
:10D6B00010331B68002B25D0FA79144913465B0000
:10D6C0001344DB000B4410331B68BB6000233B7327
:10D6D000BB79002B01D108237B73BB79012B01D1CE
:10D6E0000C237B73BB79022B01D110237B730123A5
:10D6F000BB730AF07BFF07F1080318460CF02EFA03
:10D700000AF09EFF1037BD4680BD00BF0CB603086F
:10D7100080B483B000AF0346FB71FA790D4913461C
:10D720005B001344DB000B445B681969FA79094814
:10D7300013465B001344DB0003441B880B40002BA3
:10D7400001D0012300E0002318460C37BD465DF8E8
:10D75000047B70470CB6030880B485B000AF034665
:10D76000FB71FA79154913465B001344DB000B4447
:10D770005B68FB60FA79114913465B001344DB00D8
:10D780000B445B887B81FB681A687B895B00032103
:10D7900001FA03F3DB431A40FB681A60FB681A685E
:10D7A0007B895B00012101FA03F31A43FB681A60CD
:10D7B0001437BD465DF8047B704700BF0CB6030804
:10D7C00080B485B000AF0346FB71FA791149134666
:10D7D0005B001344DB000B445B68FB60FA790D4986
:10D7E00013465B001344DB000B445B887B81FB68C2
:10D7F0005A687B89012101FA03F3DB431A40FB6875
:10D800005A60FB685A68FB685A601437BD465DF879
:10D81000047B70470CB6030880B485B000AF0346A4
:10D82000FB71FA79144913465B001344DB000B4487
:10D830005B68FB60FA79104913465B001344DB0018
:10D840000B445B887B81FB685A687B89012101FA64
:10D8500003F3DB431A40FB685A60FB685A687B8914
:10D86000012101FA03F39BB21A43FB685A60143793
:10D87000BD465DF8047B70470CB6030880B485B0E4
:10D8800000AF0346FB71FA79124913465B0013445B
:10D89000DB000B445B68FB60FA790E4913465B00C2
:10D8A0001344DB000B445B887B81FB681A687B892F
:10D8B0005B00032101FA03F3DB431A40FB681A60A3
:10D8C000FB681A68FB681A601437BD465DF8047B74
:10D8D000704700BF0CB6030880B485B000AF0346A4
:10D8E000FB71FA79124913465B001344DB000B44C9
:10D8F0005B68FB60FA790E4913465B001344DB005A
:10D900000B445B887B81FB68DA687B895B000321C1
:10D9100001FA03F3DB431A40FB68DA60FB68DA685C
:10D92000FB68DA601437BD465DF8047B704700BFC2
:10D930000CB6030880B485B000AF0346FB71FA79DA
:10D94000154913465B001344DB000B445B68FB6026
:10D95000FA79114913465B001344DB000B445B88E2
:10D960007B81FB68DA687B895B00032101FA03F3A2
:10D97000DB431A40FB68DA60FB68DA687B895B008E
:10D98000012101FA03F31A43FB68DA601437BD463C
:10D990005DF8047B704700BF0CB6030880B485B007
:10D9A00000AF0346FB71FA79154913465B00134437
:10D9B000DB000B445B68FB60FA79114913465B009E
:10D9C0001344DB000B445B887B81FB68DA687B894E
:10D9D0005B00032101FA03F3DB431A40FB68DA60C2
:10D9E000FB68DA687B895B00022101FA03F31A43C2
:10D9F000FB68DA601437BD465DF8047B704700BFF2
:10DA00000CB6030880B483B000AF02460B46FA712F
:10DA1000BB71BB79002B11D0FA79134913465B0017
:10DA20001344DB000B445968FA790F4813465B0036
:10DA30001344DB0003441B880B8310E0FA790A4986
:10DA400013465B001344DB000B445968FA7906481F
:10DA500013465B001344DB0003441B884B830C37E5
:10DA6000BD465DF8047B70470CB6030880B483B0F4
:10DA700000AF0346FB71FA791D4913465B0013445E
:10DA8000DB000B445B681969FA79194813465B009F
:10DA90001344DB0003441B880B40002B11D0FA79A0
:10DAA000134913465B001344DB000B445968FA79B1
:10DAB0000F4813465B001344DB0003441B884B8371
:10DAC00010E0FA790A4913465B001344DB000B446B
:10DAD0005968FA79064813465B001344DB00034497
